:204404000A14B1000400B240805A5C01E2D22302C1430000C1430100C1430200F2D0700082
:204424000D02F2F08F000B02003C003C0343B013C6E0003C003C0343B0138AE3003C003C5E
:204444000343B01362E3003C003C003C003C003C8C00D01DB01338E32F00D01DFF400B0021
:2044640000002F00D01DFF40A1000100FF4051000900DF4201180A00DF4200180B003A40A0
:204484009CFFF240A500610182436201B2403301640182436601B2F0F1FF6C0192D36C0194
:2044A400CC01B013ACE16F413FF0C1FF3F90410023200D143D4003001D83FE230D1603431E
:2044C400CC01B01350DF2F00D01DCF4303005E4101007E808000CF4E0400CF4305006E41E3
:2044E4007E808000CF4E0600CF4307005E4102007E808000CF4E08000A9306247C40070030
:20450400B013F8E61A53063C7C401600B013F8E63A409CFF7C400700B013FEE6B013D6CCF0
:0E452400B03F03430343FF3F03431C4310011A
:1645320081006023B0132E450C43B01304441C43B013284500133D
:02A1CC00464506
:02A1CE00464504
:02A1D000464502
:02A1D200464500
:02A1D4004645FE
:02A1D600DEE6C3
:02A1D8003AD17A
:02A1DA004645F8
:02A1DC004645F6
:02A1DE004645F4
:02A1E0004645F2
:02A1E200A4E6F1
:02A1E4004645EE
:02A1E6004645EC
:02A1E80098DA03
:02A1EA0054D24D
:02A1EC006EE41F
:02A1EE004645E4
:02A1F0004645E2
:02A1F2004645E0
:02A1F4004645DE
:02A1F6004645DC
:02A1F8004645DA
:02A1FA004645D8
:02A1FC004645D6
:02A1FE003245E8
:00000001FF
