:20440400B240805A5C018C00D01DB01338E32F00D01DFF400B0000002F00D01DFF43010053
:20442400FF4051000900DF4201180A00DF4200180B00B240409C721EB24010004204B240BF
:20444400409C5204B240100140047C400700B013FEE64C43B013F8E6B013D6CCF63F034365
:0A4464000343FF3F03431C43100114
:20446E000F14D2E323023F4010A41F82721E824F721E824F520492C342040F1600138100F1
:14448E006023B0136A440C43B01304441C43B01364440013EF
:02A1CC00A044AD
:02A1CE00A044AB
:02A1D000A044A9
:02A1D200A044A7
:02A1D400A044A5
:02A1D6006E44D5
:02A1D8003AD17A
:02A1DA00A0449F
:02A1DC00A0449D
:02A1DE00A0449B
:02A1E000A04499
:02A1E200A4E6F1
:02A1E400A04495
:02A1E600A04493
:02A1E80098DA03
:02A1EA0054D24D
:02A1EC006EE41F
:02A1EE00A0448B
:02A1F000A04489
:02A1F200A04487
:02A1F400A04485
:02A1F600A04483
:02A1F800A04481
:02A1FA00A0447F
:02A1FC00A0447D
:02A1FE008C448F
:00000001FF
