:204404000A14B240805A5C013C4010003D4010000E43B013E0E18C00D01DB01338E32F00DD
:20442400D01DFF400B0000002F00D01DFF40A0000100FF4051000900DF4201180A00DF4247
:2044440000180B003A409CFFF240A500610182436201B2403301640182436601B2F0F1FF76
:204464006C0192D36C01B013ACE5B0133AD72E00D01DCF0C8F108F11CE4F0700CE4C080056
:204484000A9306247C400700B013F8E61A53063C7C401600B013F8E63A409CFF7C400700F3
:1644A400B013FEE6B013D6CCCF3F03430343FF3F03431C43100168
:1644BA0081006023B013B6440C43B01304441C43B013B0440013A8
:02A1CC00CE447F
:02A1CE00CE447D
:02A1D000CE447B
:02A1D200CE4479
:02A1D400CE4477
:02A1D600DEE6C3
:02A1D8003AD17A
:02A1DA00CE4471
:02A1DC00CE446F
:02A1DE00CE446D
:02A1E000CE446B
:02A1E200A4E6F1
:02A1E400CE4467
:02A1E600CE4465
:02A1E80098DA03
:02A1EA0054D24D
:02A1EC006EE41F
:02A1EE00CE445D
:02A1F000CE445B
:02A1F200CE4459
:02A1F400CE4457
:02A1F600CE4455
:02A1F800CE4453
:02A1FA00CE4451
:02A1FC00CE444F
:02A1FE00BA4461
:00000001FF
